{
  "contractName": "EVCoin",
  "abi": [
    {
      "inputs": [
        {
          "internalType": "uint256",
          "name": "_LGESupply",
          "type": "uint256"
        },
        {
          "internalType": "uint256",
          "name": "_devFee",
          "type": "uint256"
        },
        {
          "internalType": "address",
          "name": "_UniswapV2Router02",
          "type": "address"
        },
        {
          "internalType": "address",
          "name": "_LPTokenReceiver",
          "type": "address"
        },
        {
          "internalType": "address",
          "name": "_ev",
          "type": "address"
        },
        {
          "internalType": "uint256",
          "name": "_endTime",
          "type": "uint256"
        }
      ],
      "stateMutability": "nonpayable",
      "type": "constructor"
    },
    {
      "anonymous": false,
      "inputs": [
        {
          "indexed": true,
          "internalType": "address",
          "name": "owner",
          "type": "address"
        },
        {
          "indexed": true,
          "internalType": "address",
          "name": "spender",
          "type": "address"
        },
        {
          "indexed": false,
          "internalType": "uint256",
          "name": "value",
          "type": "uint256"
        }
      ],
      "name": "Approval",
      "type": "event"
    },
    {
      "anonymous": false,
      "inputs": [
        {
          "indexed": true,
          "internalType": "address",
          "name": "from",
          "type": "address"
        },
        {
          "indexed": true,
          "internalType": "address",
          "name": "to",
          "type": "address"
        },
        {
          "indexed": false,
          "internalType": "uint256",
          "name": "value",
          "type": "uint256"
        }
      ],
      "name": "Transfer",
      "type": "event"
    },
    {
      "anonymous": false,
      "inputs": [
        {
          "indexed": false,
          "internalType": "address",
          "name": "",
          "type": "address"
        },
        {
          "indexed": false,
          "internalType": "uint256",
          "name": "",
          "type": "uint256"
        }
      ],
      "name": "ethRaised",
      "type": "event"
    },
    {
      "inputs": [],
      "name": "LGEComplete",
      "outputs": [
        {
          "internalType": "bool",
          "name": "",
          "type": "bool"
        }
      ],
      "stateMutability": "view",
      "type": "function"
    },
    {
      "inputs": [],
      "name": "LGESupply",
      "outputs": [
        {
          "internalType": "uint256",
          "name": "",
          "type": "uint256"
        }
      ],
      "stateMutability": "view",
      "type": "function"
    },
    {
      "inputs": [],
      "name": "LPTokenReceiver",
      "outputs": [
        {
          "internalType": "address",
          "name": "",
          "type": "address"
        }
      ],
      "stateMutability": "view",
      "type": "function"
    },
    {
      "inputs": [],
      "name": "UniswapV2Router02",
      "outputs": [
        {
          "internalType": "contract IUniswapV2Router02",
          "name": "",
          "type": "address"
        }
      ],
      "stateMutability": "view",
      "type": "function"
    },
    {
      "inputs": [
        {
          "internalType": "address",
          "name": "owner",
          "type": "address"
        },
        {
          "internalType": "address",
          "name": "spender",
          "type": "address"
        }
      ],
      "name": "allowance",
      "outputs": [
        {
          "internalType": "uint256",
          "name": "",
          "type": "uint256"
        }
      ],
      "stateMutability": "view",
      "type": "function"
    },
    {
      "inputs": [
        {
          "internalType": "address",
          "name": "spender",
          "type": "address"
        },
        {
          "internalType": "uint256",
          "name": "amount",
          "type": "uint256"
        }
      ],
      "name": "approve",
      "outputs": [
        {
          "internalType": "bool",
          "name": "",
          "type": "bool"
        }
      ],
      "stateMutability": "nonpayable",
      "type": "function"
    },
    {
      "inputs": [
        {
          "internalType": "address",
          "name": "account",
          "type": "address"
        }
      ],
      "name": "balanceOf",
      "outputs": [
        {
          "internalType": "uint256",
          "name": "",
          "type": "uint256"
        }
      ],
      "stateMutability": "view",
      "type": "function"
    },
    {
      "inputs": [],
      "name": "decimals",
      "outputs": [
        {
          "internalType": "uint8",
          "name": "",
          "type": "uint8"
        }
      ],
      "stateMutability": "view",
      "type": "function"
    },
    {
      "inputs": [
        {
          "internalType": "address",
          "name": "spender",
          "type": "address"
        },
        {
          "internalType": "uint256",
          "name": "subtractedValue",
          "type": "uint256"
        }
      ],
      "name": "decreaseAllowance",
      "outputs": [
        {
          "internalType": "bool",
          "name": "",
          "type": "bool"
        }
      ],
      "stateMutability": "nonpayable",
      "type": "function"
    },
    {
      "inputs": [],
      "name": "endTime",
      "outputs": [
        {
          "internalType": "uint256",
          "name": "",
          "type": "uint256"
        }
      ],
      "stateMutability": "view",
      "type": "function"
    },
    {
      "inputs": [],
      "name": "ev",
      "outputs": [
        {
          "internalType": "address",
          "name": "",
          "type": "address"
        }
      ],
      "stateMutability": "view",
      "type": "function"
    },
    {
      "inputs": [
        {
          "internalType": "address",
          "name": "spender",
          "type": "address"
        },
        {
          "internalType": "uint256",
          "name": "addedValue",
          "type": "uint256"
        }
      ],
      "name": "increaseAllowance",
      "outputs": [
        {
          "internalType": "bool",
          "name": "",
          "type": "bool"
        }
      ],
      "stateMutability": "nonpayable",
      "type": "function"
    },
    {
      "inputs": [],
      "name": "name",
      "outputs": [
        {
          "internalType": "string",
          "name": "",
          "type": "string"
        }
      ],
      "stateMutability": "view",
      "type": "function"
    },
    {
      "inputs": [],
      "name": "symbol",
      "outputs": [
        {
          "internalType": "string",
          "name": "",
          "type": "string"
        }
      ],
      "stateMutability": "view",
      "type": "function"
    },
    {
      "inputs": [],
      "name": "totalETHContributed",
      "outputs": [
        {
          "internalType": "uint256",
          "name": "",
          "type": "uint256"
        }
      ],
      "stateMutability": "view",
      "type": "function"
    },
    {
      "inputs": [],
      "name": "totalSupply",
      "outputs": [
        {
          "internalType": "uint256",
          "name": "",
          "type": "uint256"
        }
      ],
      "stateMutability": "view",
      "type": "function"
    },
    {
      "inputs": [
        {
          "internalType": "address",
          "name": "recipient",
          "type": "address"
        },
        {
          "internalType": "uint256",
          "name": "amount",
          "type": "uint256"
        }
      ],
      "name": "transfer",
      "outputs": [
        {
          "internalType": "bool",
          "name": "",
          "type": "bool"
        }
      ],
      "stateMutability": "nonpayable",
      "type": "function"
    },
    {
      "inputs": [
        {
          "internalType": "address",
          "name": "sender",
          "type": "address"
        },
        {
          "internalType": "address",
          "name": "recipient",
          "type": "address"
        },
        {
          "internalType": "uint256",
          "name": "amount",
          "type": "uint256"
        }
      ],
      "name": "transferFrom",
      "outputs": [
        {
          "internalType": "bool",
          "name": "",
          "type": "bool"
        }
      ],
      "stateMutability": "nonpayable",
      "type": "function"
    },
    {
      "stateMutability": "payable",
      "type": "receive"
    },
    {
      "inputs": [
        {
          "internalType": "address",
          "name": "_who",
          "type": "address"
        },
        {
          "internalType": "uint256",
          "name": "_howMuch",
          "type": "uint256"
        }
      ],
      "name": "grant",
      "outputs": [],
      "stateMutability": "nonpayable",
      "type": "function"
    },
    {
      "inputs": [
        {
          "internalType": "uint256",
          "name": "_timeout",
          "type": "uint256"
        }
      ],
      "name": "endLGE",
      "outputs": [],
      "stateMutability": "nonpayable",
      "type": "function"
    },
    {
      "inputs": [],
      "name": "test_timestamp",
      "outputs": [
        {
          "internalType": "uint256",
          "name": "",
          "type": "uint256"
        }
      ],
      "stateMutability": "view",
      "type": "function"
    }
  ],
  "bytecode": "0x60806040526000600a60146101000a81548160ff0219169083151502179055503480156200002c57600080fd5b50604051620020cd380380620020cd833981810160405260c08110156200005257600080fd5b810190808051906020019092919080519060200190929190805190602001909291908051906020019092919080519060200190929190805190602001909291905050506040518060400160405280600681526020017f4576436f696e00000000000000000000000000000000000000000000000000008152506040518060400160405280600281526020017f4556000000000000000000000000000000000000000000000000000000000000815250816003908051906020019062000119929190620004be565b50806004908051906020019062000132929190620004be565b506012600560006101000a81548160ff021916908360ff160217905550505083600d60006101000a81548173ffffffffffffffffffffffffffffffffffffffff021916908373ffffffffffffffffffffffffffffffffffffffff16021790555085600681905550620001ab30876200025260201b60201c565b620001bd33866200025260201b60201c565b82600960006101000a81548173ffffffffffffffffffffffffffffffffffffffff021916908373ffffffffffffffffffffffffffffffffffffffff16021790555081600a60006101000a81548173ffffffffffffffffffffffffffffffffffffffff021916908373ffffffffffffffffffffffffffffffffffffffff160217905550806008819055505050505050506200056d565b600073ffffffffffffffffffffffffffffffffffffffff168273ffffffffffffffffffffffffffffffffffffffff161415620002f6576040517f08c379a000000000000000000000000000000000000000000000000000000000815260040180806020018281038252601f8152602001807f45524332303a206d696e7420746f20746865207a65726f20616464726573730081525060200191505060405180910390fd5b6200030a600083836200043060201b60201c565b62000326816002546200043560201b620017c51790919060201c565b60028190555062000384816000808573ffffffffffffffffffffffffffffffffffffffff1673ffffffffffffffffffffffffffffffffffffffff168152602001908152602001600020546200043560201b620017c51790919060201c565b6000808473ffffffffffffffffffffffffffffffffffffffff1673ffffffffffffffffffffffffffffffffffffffff168152602001908152602001600020819055508173ffffffffffffffffffffffffffffffffffffffff16600073ffffffffffffffffffffffffffffffffffffffff167fddf252ad1be2c89b69c2b068fc378daa952ba7f163c4a11628f55a4df523b3ef836040518082815260200191505060405180910390a35050565b505050565b600080828401905083811015620004b4576040517f08c379a000000000000000000000000000000000000000000000000000000000815260040180806020018281038252601b8152602001807f536166654d6174683a206164646974696f6e206f766572666c6f77000000000081525060200191505060405180910390fd5b8091505092915050565b828054600181600116156101000203166002900490600052602060002090601f016020900481019282601f106200050157805160ff191683800117855562000532565b8280016001018555821562000532579182015b828111156200053157825182559160200191906001019062000514565b5b50905062000541919062000545565b5090565b6200056a91905b80821115620005665760008160009055506001016200054c565b5090565b90565b611b50806200057d6000396000f3fe60806040526004361061012e5760003560e01c806355cb2666116100ab578063a9059cbb1161006f578063a9059cbb146107c5578063bac1570014610838578063d2756dc014610867578063dd62ed3e14610892578063e3eb681914610917578063ff8869481461095257610269565b806355cb2666146105ab5780636370920e1461060257806370a082311461065d57806395d89b41146106c2578063a457c2d71461075257610269565b806323c04d9d116100f257806323c04d9d1461045a578063313ce567146104b15780633197cbb6146104e2578063395093511461050d5780633c2b41661461058057610269565b806306fdde031461026e578063095ea7b3146102fe57806318160ddd14610371578063233994341461039c57806323b872dd146103c757610269565b366102695761013b6109a9565b1561014557600080fd5b7f5d82f5b3b63a8d004f91e761823d8bab49cbf9f64c752f1d7395d3f2b82618e63334604051808373ffffffffffffffffffffffffffffffffffffffff1673ffffffffffffffffffffffffffffffffffffffff1681526020018281526020019250505060405180910390a134600760008282540192505081905550600c339080600181540180825580915050600190039060005260206000200160009091909190916101000a81548173ffffffffffffffffffffffffffffffffffffffff021916908373ffffffffffffffffffffffffffffffffffffffff16021790555034600b60003373ffffffffffffffffffffffffffffffffffffffff1673ffffffffffffffffffffffffffffffffffffffff16815260200190815260200160002081905550005b600080fd5b34801561027a57600080fd5b506102836109c5565b6040518080602001828103825283818151815260200191508051906020019080838360005b838110156102c35780820151818401526020810190506102a8565b50505050905090810190601f1680156102f05780820380516001836020036101000a031916815260200191505b509250505060405180910390f35b34801561030a57600080fd5b506103576004803603604081101561032157600080fd5b81019080803573ffffffffffffffffffffffffffffffffffffffff16906020019092919080359060200190929190505050610a67565b604051808215151515815260200191505060405180910390f35b34801561037d57600080fd5b50610386610a85565b6040518082815260200191505060405180910390f35b3480156103a857600080fd5b506103b1610a8f565b6040518082815260200191505060405180910390f35b3480156103d357600080fd5b50610440600480360360608110156103ea57600080fd5b81019080803573ffffffffffffffffffffffffffffffffffffffff169060200190929190803573ffffffffffffffffffffffffffffffffffffffff16906020019092919080359060200190929190505050610a95565b604051808215151515815260200191505060405180910390f35b34801561046657600080fd5b5061046f610b6e565b604051808273ffffffffffffffffffffffffffffffffffffffff1673ffffffffffffffffffffffffffffffffffffffff16815260200191505060405180910390f35b3480156104bd57600080fd5b506104c6610b94565b604051808260ff1660ff16815260200191505060405180910390f35b3480156104ee57600080fd5b506104f7610bab565b6040518082815260200191505060405180910390f35b34801561051957600080fd5b506105666004803603604081101561053057600080fd5b81019080803573ffffffffffffffffffffffffffffffffffffffff16906020019092919080359060200190929190505050610bb1565b604051808215151515815260200191505060405180910390f35b34801561058c57600080fd5b50610595610c64565b6040518082815260200191505060405180910390f35b3480156105b757600080fd5b506105c0610c6a565b604051808273ffffffffffffffffffffffffffffffffffffffff1673ffffffffffffffffffffffffffffffffffffffff16815260200191505060405180910390f35b34801561060e57600080fd5b5061065b6004803603604081101561062557600080fd5b81019080803573ffffffffffffffffffffffffffffffffffffffff16906020019092919080359060200190929190505050610c90565b005b34801561066957600080fd5b506106ac6004803603602081101561068057600080fd5b81019080803573ffffffffffffffffffffffffffffffffffffffff169060200190929190505050610cf8565b6040518082815260200191505060405180910390f35b3480156106ce57600080fd5b506106d7610d40565b6040518080602001828103825283818151815260200191508051906020019080838360005b838110156107175780820151818401526020810190506106fc565b50505050905090810190601f1680156107445780820380516001836020036101000a031916815260200191505b509250505060405180910390f35b34801561075e57600080fd5b506107ab6004803603604081101561077557600080fd5b81019080803573ffffffffffffffffffffffffffffffffffffffff16906020019092919080359060200190929190505050610de2565b604051808215151515815260200191505060405180910390f35b3480156107d157600080fd5b5061081e600480360360408110156107e857600080fd5b81019080803573ffffffffffffffffffffffffffffffffffffffff16906020019092919080359060200190929190505050610eaf565b604051808215151515815260200191505060405180910390f35b34801561084457600080fd5b5061084d610ecd565b604051808215151515815260200191505060405180910390f35b34801561087357600080fd5b5061087c610ee0565b6040518082815260200191505060405180910390f35b34801561089e57600080fd5b50610901600480360360408110156108b557600080fd5b81019080803573ffffffffffffffffffffffffffffffffffffffff169060200190929190803573ffffffffffffffffffffffffffffffffffffffff169060200190929190505050610ee8565b6040518082815260200191505060405180910390f35b34801561092357600080fd5b506109506004803603602081101561093a57600080fd5b8101908080359060200190929190505050610f6f565b005b34801561095e57600080fd5b50610967611225565b604051808273ffffffffffffffffffffffffffffffffffffffff1673ffffffffffffffffffffffffffffffffffffffff16815260200191505060405180910390f35b600060085442106109bd57600190506109c2565b600090505b90565b606060038054600181600116156101000203166002900480601f016020809104026020016040519081016040528092919081815260200182805460018160011615610100020316600290048015610a5d5780601f10610a3257610100808354040283529160200191610a5d565b820191906000526020600020905b815481529060010190602001808311610a4057829003601f168201915b5050505050905090565b6000610a7b610a7461124b565b8484611253565b6001905092915050565b6000600254905090565b60075481565b6000610aa284848461144a565b610b6384610aae61124b565b610b5e85604051806060016040528060288152602001611a8560289139600160008b73ffffffffffffffffffffffffffffffffffffffff1673ffffffffffffffffffffffffffffffffffffffff1681526020019081526020016000206000610b1461124b565b73ffffffffffffffffffffffffffffffffffffffff1673ffffffffffffffffffffffffffffffffffffffff1681526020019081526020016000205461170b9092919063ffffffff16565b611253565b600190509392505050565b600960009054906101000a900473ffffffffffffffffffffffffffffffffffffffff1681565b6000600560009054906101000a900460ff16905090565b60085481565b6000610c5a610bbe61124b565b84610c558560016000610bcf61124b565b73ffffffffffffffffffffffffffffffffffffffff1673ffffffffffffffffffffffffffffffffffffffff16815260200190815260200160002060008973ffffffffffffffffffffffffffffffffffffffff1673ffffffffffffffffffffffffffffffffffffffff168152602001908152602001600020546117c590919063ffffffff16565b611253565b6001905092915050565b60065481565b600d60009054906101000a900473ffffffffffffffffffffffffffffffffffffffff1681565b600a60009054906101000a900473ffffffffffffffffffffffffffffffffffffffff1673ffffffffffffffffffffffffffffffffffffffff163373ffffffffffffffffffffffffffffffffffffffff1614610cea57600080fd5b610cf4828261184d565b5050565b60008060008373ffffffffffffffffffffffffffffffffffffffff1673ffffffffffffffffffffffffffffffffffffffff168152602001908152602001600020549050919050565b606060048054600181600116156101000203166002900480601f016020809104026020016040519081016040528092919081815260200182805460018160011615610100020316600290048015610dd85780601f10610dad57610100808354040283529160200191610dd8565b820191906000526020600020905b815481529060010190602001808311610dbb57829003601f168201915b5050505050905090565b6000610ea5610def61124b565b84610ea085604051806060016040528060258152602001611af66025913960016000610e1961124b565b73ffffffffffffffffffffffffffffffffffffffff1673ffffffffffffffffffffffffffffffffffffffff16815260200190815260200160002060008a73ffffffffffffffffffffffffffffffffffffffff1673ffffffffffffffffffffffffffffffffffffffff1681526020019081526020016000205461170b9092919063ffffffff16565b611253565b6001905092915050565b6000610ec3610ebc61124b565b848461144a565b6001905092915050565b600a60149054906101000a900460ff1681565b600042905090565b6000600160008473ffffffffffffffffffffffffffffffffffffffff1673ffffffffffffffffffffffffffffffffffffffff16815260200190815260200160002060008373ffffffffffffffffffffffffffffffffffffffff1673ffffffffffffffffffffffffffffffffffffffff16815260200190815260200160002054905092915050565b610f776109a9565b610f8057600080fd5b600a60149054906101000a900460ff1615610f9a57600080fd5b3073ffffffffffffffffffffffffffffffffffffffff1663095ea7b3600d60009054906101000a900473ffffffffffffffffffffffffffffffffffffffff166006546040518363ffffffff1660e01b8152600401808373ffffffffffffffffffffffffffffffffffffffff1673ffffffffffffffffffffffffffffffffffffffff16815260200182815260200192505050602060405180830381600087803b15801561104557600080fd5b505af1158015611059573d6000803e3d6000fd5b505050506040513d602081101561106f57600080fd5b810190808051906020019092919050505050600d60009054906101000a900473ffffffffffffffffffffffffffffffffffffffff1673ffffffffffffffffffffffffffffffffffffffff1663f305d7193073ffffffffffffffffffffffffffffffffffffffff163130600654600080600960009054906101000a900473ffffffffffffffffffffffffffffffffffffffff168842016040518863ffffffff1660e01b8152600401808773ffffffffffffffffffffffffffffffffffffffff1673ffffffffffffffffffffffffffffffffffffffff1681526020018681526020018581526020018481526020018373ffffffffffffffffffffffffffffffffffffffff1673ffffffffffffffffffffffffffffffffffffffff16815260200182815260200196505050505050506060604051808303818588803b1580156111b457600080fd5b505af11580156111c8573d6000803e3d6000fd5b50505050506040513d60608110156111df57600080fd5b810190808051906020019092919080519060200190929190805190602001909291905050505050506001600a60146101000a81548160ff02191690831515021790555050565b600a60009054906101000a900473ffffffffffffffffffffffffffffffffffffffff1681565b600033905090565b600073ffffffffffffffffffffffffffffffffffffffff168373ffffffffffffffffffffffffffffffffffffffff1614156112d9576040517f08c379a0000000000000000000000000000000000000000000000000000000008152600401808060200182810382526024815260200180611ad26024913960400191505060405180910390fd5b600073ffffffffffffffffffffffffffffffffffffffff168273ffffffffffffffffffffffffffffffffffffffff16141561135f576040517f08c379a0000000000000000000000000000000000000000000000000000000008152600401808060200182810382526022815260200180611a3d6022913960400191505060405180910390fd5b80600160008573ffffffffffffffffffffffffffffffffffffffff1673ffffffffffffffffffffffffffffffffffffffff16815260200190815260200160002060008473ffffffffffffffffffffffffffffffffffffffff1673ffffffffffffffffffffffffffffffffffffffff168152602001908152602001600020819055508173ffffffffffffffffffffffffffffffffffffffff168373ffffffffffffffffffffffffffffffffffffffff167f8c5be1e5ebec7d5bd14f71427d1e84f3dd0314c0f7b2291e5b200ac8c7c3b925836040518082815260200191505060405180910390a3505050565b600073ffffffffffffffffffffffffffffffffffffffff168373ffffffffffffffffffffffffffffffffffffffff1614156114d0576040517f08c379a0000000000000000000000000000000000000000000000000000000008152600401808060200182810382526025815260200180611aad6025913960400191505060405180910390fd5b600073ffffffffffffffffffffffffffffffffffffffff168273ffffffffffffffffffffffffffffffffffffffff161415611556576040517f08c379a0000000000000000000000000000000000000000000000000000000008152600401808060200182810382526023815260200180611a1a6023913960400191505060405180910390fd5b611561838383611a14565b6115cc81604051806060016040528060268152602001611a5f602691396000808773ffffffffffffffffffffffffffffffffffffffff1673ffffffffffffffffffffffffffffffffffffffff1681526020019081526020016000205461170b9092919063ffffffff16565b6000808573ffffffffffffffffffffffffffffffffffffffff1673ffffffffffffffffffffffffffffffffffffffff1681526020019081526020016000208190555061165f816000808573ffffffffffffffffffffffffffffffffffffffff1673ffffffffffffffffffffffffffffffffffffffff168152602001908152602001600020546117c590919063ffffffff16565b6000808473ffffffffffffffffffffffffffffffffffffffff1673ffffffffffffffffffffffffffffffffffffffff168152602001908152602001600020819055508173ffffffffffffffffffffffffffffffffffffffff168373ffffffffffffffffffffffffffffffffffffffff167fddf252ad1be2c89b69c2b068fc378daa952ba7f163c4a11628f55a4df523b3ef836040518082815260200191505060405180910390a3505050565b60008383111582906117b8576040517f08c379a00000000000000000000000000000000000000000000000000000000081526004018080602001828103825283818151815260200191508051906020019080838360005b8381101561177d578082015181840152602081019050611762565b50505050905090810190601f1680156117aa5780820380516001836020036101000a031916815260200191505b509250505060405180910390fd5b5082840390509392505050565b600080828401905083811015611843576040517f08c379a000000000000000000000000000000000000000000000000000000000815260040180806020018281038252601b8152602001807f536166654d6174683a206164646974696f6e206f766572666c6f77000000000081525060200191505060405180910390fd5b8091505092915050565b600073ffffffffffffffffffffffffffffffffffffffff168273ffffffffffffffffffffffffffffffffffffffff1614156118f0576040517f08c379a000000000000000000000000000000000000000000000000000000000815260040180806020018281038252601f8152602001807f45524332303a206d696e7420746f20746865207a65726f20616464726573730081525060200191505060405180910390fd5b6118fc60008383611a14565b611911816002546117c590919063ffffffff16565b600281905550611968816000808573ffffffffffffffffffffffffffffffffffffffff1673ffffffffffffffffffffffffffffffffffffffff168152602001908152602001600020546117c590919063ffffffff16565b6000808473ffffffffffffffffffffffffffffffffffffffff1673ffffffffffffffffffffffffffffffffffffffff168152602001908152602001600020819055508173ffffffffffffffffffffffffffffffffffffffff16600073ffffffffffffffffffffffffffffffffffffffff167fddf252ad1be2c89b69c2b068fc378daa952ba7f163c4a11628f55a4df523b3ef836040518082815260200191505060405180910390a35050565b50505056fe45524332303a207472616e7366657220746f20746865207a65726f206164647265737345524332303a20617070726f766520746f20746865207a65726f206164647265737345524332303a207472616e7366657220616d6f756e7420657863656564732062616c616e636545524332303a207472616e7366657220616d6f756e74206578636565647320616c6c6f77616e636545524332303a207472616e736665722066726f6d20746865207a65726f206164647265737345524332303a20617070726f76652066726f6d20746865207a65726f206164647265737345524332303a2064656372656173656420616c6c6f77616e63652062656c6f77207a65726fa26469706673582212203bb53198e8d3d336d9580a4eb2df41e732232b8da2efe7bc01a0ffb4c1e92fc064736f6c63430006060033",
  "immutableReferences": {},
  "source": "/***************************************************************************************/\n/*                  LGERC20\n/*By: Carson Case\n/*An ERC20 token made to be released in a Uniswap LGE\n/***************************************************************************************/\npragma solidity ^0.6.6;\n\n//Imports\nimport '@openzeppelin/contracts/token/ERC20/ERC20.sol';\nimport '@uniswap/v2-periphery/contracts/interfaces/IUniswapV2Router02.sol';\n\n\n//Contract is an ERC20\ncontract EVCoin is ERC20{\n    /* =====Events=====*/\n    event ethRaised(address,uint256);\n\n    /* =====State Variables=====*/\n    uint256 public LGESupply;\n    uint256 public totalETHContributed;\n    uint256 public endTime;\n    address public LPTokenReceiver;\n    address public ev;\n    bool public LGEComplete = false;\n\n    /*=====Data Structures=====*/\n    mapping(address => uint256) contributers;\n    address[] contributerList;\n\n    /*=====Interfaces=====*/\n    IUniswapV2Router02 public UniswapV2Router02;\n    \n    /*=====Constructor=====*/\n    constructor(    \n    uint256 _LGESupply,                     //->ERC20 Tokens to be minted for LGE\n    uint256 _devFee,                        //->ERC20 Tokens to be minted for Dev Fee                  \n    address _UniswapV2Router02,             //->Address of Uniswap Router             \n    address _LPTokenReceiver,               //->Address of the recipitent of Liquidity tokens     \n    address _ev,                            //->Ev's Address \n    uint256 _endTime)                       //->End time for LGE               \n    ERC20(\"EvCoin\", \"EV\") public {\n        UniswapV2Router02 = IUniswapV2Router02(_UniswapV2Router02);     //Initialize Uniswap router\n        LGESupply = _LGESupply;                                         //Note tokens to be sent off in LGE\n        _mint(address(this),_LGESupply);                                //Mint those tokens to contract\n        _mint(msg.sender,_devFee);                                      //Mint dev fee\n        LPTokenReceiver = _LPTokenReceiver;                             //LP Token receiver\n        ev = _ev;\n        endTime = _endTime;                                             //End time\n    }\n\n    /*=======================+++++++++========================*/\n    /*=======================Modifiers========================*/\n    /*=======================+++++++++========================*/\n\n    /*=====IsEv=====*/\n    modifier isEv(){\n        require(msg.sender == ev);\n        _;\n    }\n\n    /*====================+++++++++++++++++====================*/\n    /*====================Private Functions====================*/\n    /*====================+++++++++++++++++====================*/\n\n    /*=====IsOver=====\n    Returns if LGE is over or not\n    */\n    function _isOver() private view returns(bool){\n        if(block.timestamp >= endTime){\n            return true;\n        }else{\n            return false;\n        }\n    }\n\n    /*====================++++++++++++++++=====================*/\n    /*====================Public Functions=====================*/\n    /*====================++++++++++++++++=====================*/\n    \n    /*=====Grant EvCoins=====\n    Mints evcoin to _who.\n    Can only be called by ev\n    */\n    function grant(address _who, uint256 _howMuch) public isEv{\n        _mint(_who,_howMuch);\n    }\n    \n    /*=====endLGE=====*/\n    function endLGE(uint256 _timeout) public{\n        //requires\n        require(_isOver());                                                         //Require LGE is over\n        require(!LGEComplete);                                                      //Require LGE is not already completed\n\n        this.approve(address(UniswapV2Router02),LGESupply);                         //Approve LGE tokens to be sent off\n\n        UniswapV2Router02.addLiquidityETH                                           //Send the liquidity to Uniswap\n        {value:address(this).balance}                                               //Ammount of ETH to send\n        (             \n            address(this),                                                          //Address of non-eth token\n            LGESupply,                                                              //Ammount of tokens\n            0,  //For these refer to                                                                    \n            0,  //Uniswap docs\n            LPTokenReceiver,                                                        //Recipitent of tokens\n            now+_timeout);                                                          //Timeout to revert\n       \n        LGEComplete = true;                                                         //Set LGE to complete\n    }\n\n    /* =====Receive Function=====*/\n    receive() payable external{\n        require(!_isOver());                                                        //Require LGE is still going on\n        emit ethRaised(msg.sender,msg.value);\n        totalETHContributed += msg.value;                                           //Increase total value of ETH raised\n        contributerList.push(msg.sender);                                           //Push to list of contributers                                           \n        contributers[msg.sender] = msg.value;                                       //Note how much was contributed\n    }\n\n    /*=====TEST=====*/\n    function test_timestamp() public view returns(uint256){\n        return(block.timestamp);\n    }\n\n}\n\n",
  "sourcePath": "/home/carson/Documents/programming/blockchain/EVCoin/contracts/EVCoin.sol",
  "compiler": {
    "name": "solc",
    "version": "0.6.6+commit.6c089d02.Emscripten.clang"
  },
  "schemaVersion": "3.3.3",
  "updatedAt": "2021-02-12T06:18:10.482Z",
  "devdoc": {
    "methods": {
      "allowance(address,address)": {
        "details": "See {IERC20-allowance}."
      },
      "approve(address,uint256)": {
        "details": "See {IERC20-approve}.     * Requirements:     * - `spender` cannot be the zero address."
      },
      "balanceOf(address)": {
        "details": "See {IERC20-balanceOf}."
      },
      "decimals()": {
        "details": "Returns the number of decimals used to get its user representation. For example, if `decimals` equals `2`, a balance of `505` tokens should be displayed to a user as `5,05` (`505 / 10 ** 2`).     * Tokens usually opt for a value of 18, imitating the relationship between Ether and Wei. This is the value {ERC20} uses, unless {_setupDecimals} is called.     * NOTE: This information is only used for _display_ purposes: it in no way affects any of the arithmetic of the contract, including {IERC20-balanceOf} and {IERC20-transfer}."
      },
      "decreaseAllowance(address,uint256)": {
        "details": "Atomically decreases the allowance granted to `spender` by the caller.     * This is an alternative to {approve} that can be used as a mitigation for problems described in {IERC20-approve}.     * Emits an {Approval} event indicating the updated allowance.     * Requirements:     * - `spender` cannot be the zero address. - `spender` must have allowance for the caller of at least `subtractedValue`."
      },
      "increaseAllowance(address,uint256)": {
        "details": "Atomically increases the allowance granted to `spender` by the caller.     * This is an alternative to {approve} that can be used as a mitigation for problems described in {IERC20-approve}.     * Emits an {Approval} event indicating the updated allowance.     * Requirements:     * - `spender` cannot be the zero address."
      },
      "name()": {
        "details": "Returns the name of the token."
      },
      "symbol()": {
        "details": "Returns the symbol of the token, usually a shorter version of the name."
      },
      "totalSupply()": {
        "details": "See {IERC20-totalSupply}."
      },
      "transfer(address,uint256)": {
        "details": "See {IERC20-transfer}.     * Requirements:     * - `recipient` cannot be the zero address. - the caller must have a balance of at least `amount`."
      },
      "transferFrom(address,address,uint256)": {
        "details": "See {IERC20-transferFrom}.     * Emits an {Approval} event indicating the updated allowance. This is not required by the EIP. See the note at the beginning of {ERC20}.     * Requirements:     * - `sender` and `recipient` cannot be the zero address. - `sender` must have a balance of at least `amount`. - the caller must have allowance for ``sender``'s tokens of at least `amount`."
      }
    }
  },
  "userdoc": {
    "methods": {}
  }
}